:020000040800F2
:100000000050002065020008B5020008B502000893
:10001000B5020008B5020008B502000800000000A3
:10002000000000000000000000000000B502000811
:10003000B502000800000000B5020008B502000883
:10004000B5020008B5020008B5020008B5020008B4
:10005000B5020008B5020008B5020008B5020008A4
:10006000B5020008B5020008B5020008B502000894
:10007000B5020008B5020008B5020008B502000884
:10008000B5020008B5020008B5020008B502000874
:10009000B5020008B5020008B5020008B502000864
:1000A000B5020008B5020008B5020008B502000854
:1000B000B5020008B5020008B5020008B502000844
:1000C000B5020008B5020008B5020008B502000834
:1000D000B5020008B5020008B5020008B502000824
:1000E000B5020008B502000800000000B5020008D3
:1000F000B5020008B5020008B5020008B502000804
:10010000B5020008B5020008B5020008B5020008F3
:10011000B5020008B5020008B5020008B5020008E3
:10012000B5020008B5020008B5020008B5020008D3
:1001300010B5054C237833B9044B13B10448AFF321
:1001400000800123237010BD00000020000000008B
:100150000003000808B5034B1BB103490348AFF384
:10016000008008BD0000000004000020000300081B
:1001700080B483B000AF344B1B68334A43F00403B0
:100180001360314B1B68304A43F0100313602F4B50
:100190001B682E4A23F4800313602C4B1B682B4AE8
:1001A00023F400031360294B1B68284A43F480138F
:1001B0001360264B1B68254A23F400131360244B5D
:1001C0001B68234A23F480031360214B1B68204AD9
:1001D00023F4000313601E4B1B681D4A43F4801375
:1001E00013601B4B1B681A4A23F400131360194B4E
:1001F0001B68184A83F020031360174B1B68164ACC
:1002000083F40053136000237B6002E07B680133BA
:100210007B607B68114A9342F8DD0E4B1B680D4AE8
:1002200083F0200313600C4B1B680B4A83F40053CC
:10023000136000233B6002E03B6801333B603B6896
:10024000074A9342F8DDD2E7181002400008014047
:10025000041001400C0801400C1001408FD0030035
:100260001FA107000D488546AFF300800C480D49DB
:100270000D4A002302E0D458C4500433C4188C4201
:10028000F9D30A4A0A4C002301E013600432A24267
:10029000FBD300F011F8FFF76BFFFEE700500020E2
:1002A00000000020000000202003000800000020C3
:1002B0001C000020FEE7000070B500260C4D0D4C20
:1002C000641BA410A64209D100F01AF800260A4DBA
:1002D0000A4C641BA410A64205D170BD55F8043B1E
:1002E00098470136EEE755F8043B98470136F2E7A8
:1002F0001803000818030008180300081C0300086E
:10030000F8B500BFF8BC08BC9E467047F8B500BF02
:08031000F8BC08BC9E467047D2
:040318005501000883
:04031C0031010008A3
:040000050800026588
:00000001FF
